:04000000FEEF3FF0E0
:107F26000001BBEF3FF0A9EC3FF0D9EC3FF09DEC30
:107F36003FF01200700E3901D96F000EDB6F000E94
:107F4600DD6F020EDF6F000EDE6F1200000E3901CC
:107F5600C06F000EC16F000EC26F000EC36F000E21
:107F6600C46F000EC56F000EC66F000EC76F1200FD
:107F760096EC3FF0BAB0C2EF3FF0C5EF3FF0010E0E
:107F8600C6EF3FF0000EFF0A016EBA500118FE0B55
:107F96000118BA6EF40E016E800EE82EFED7012E81
:107FA600FCD700D0BDEF3FF0FEEF3FF0000EBA6EFB
:107FB600000EBB6E000EBC6EFE0EC26EC368C468B9
:107FC6003A01606950694069000E816F000E516F79
:107FD600000E416F000E616F000E426F000E526F71
:107FE600000E626F43695369636944695469646941
:0A7FF600080E846F120093EF3FF0B5
:020000040020DA
:10000000FF0FFF0FFF0FFF0FFF0FFF0FFF0FFF0F80
:020000040030CA
:0A000000FCFFF7FF9FFFFFFFFFFF6B
:00000001FF
