:020000040000FA
:04000000FEEF7FF0A0
:040008008DEF7CF00C
:02001800FF00E7
:10F864001200D29A120001C03EF002C03FF0120012
:10F8740001C038F002C039F0120001C03CF002C0EF
:10F884003DF0120001C03AF002C03BF01200620EDB
:10F894003901D96F000EDB6F000EDD6F070EDF6FCD
:10F8A400000EDE6F120033EC7CF09FEC7CF0F6EC83
:10F8B4007CF049EC7CF026EC7DF096EC7DF01200B7
:10F8C400016E3901A3A969EF7CF06BEF7CF063EF63
:10F8D4007CF0600007F0EAFD1200406A3F6A3E6A6D
:10F8E400080ED56E000ED66E000ED76E000EF86EA2
:10F8F4000001C7EF7CF002D88AEF7CF00500FA6EB5
:10F904003E50FD6E3F50FE6EF850FF6EFA501200EE
:10F914003901A59D1200390195AD93EF7CF095EF67
:10F924007CF09EEF7CF0A5AD9AEF7CF09CEF7CF030
:10F934009EEF7CF07DEC7CF01100000E3901C06F6D
:10F94400000EC16F000EC26F000EC36F000EC46FB5
:10F95400000EC56F000EC66F000EC76F1200000EBA
:10F96400016E3901A3A9B9EF7CF0BBEF7CF0C5EFC0
:10F974007CF03D01F2ABC1EF7CF0C3EF7CF0C5EF4E
:10F984007CF0010E016E0150120055EC7CF0000E6B
:10F994001C6E000E1D6E000E1E6E000E1F6E000EFD
:10F9A400206E010E216E690E226E2A0E146E000E58
:10F9B400156EA2EC7EF00009D8B4E3EF7CF0E5EF1D
:10F9C4007CF0D7EF7CF0B1EC7CF00009D8B4EDEF1B
:10F9D4007CF0EFEF7CF0E5EF7CF0880E62EC7CF0DD
:10F9E400D7EF7CF0FEEF7FF0000EBA6E000EBB6E18
:10F9F400000EBC6EC268CF0EC36EBF0EC46E7F0E07
:10FA04003A01606FF70E506F4069000E816F000E6F
:10FA1400516F000E416F000E616F000E426F000EB9
:10FA2400526F000E626F4369536963694469546994
:10FA34006469080E846F0B0EED6F330E0C6F130E9A
:10FA4400166F170EE76F1200000E3D01EC6F000EEB
:10FA5400ED6F000EEE6F000EEF6F000EF06F000EF4
:10FA6400F16FB00EF26F800EF36F000EF46F380E6C
:10FA7400F56F010EF66F000EF76F000EF86F000EB3
:10FA8400F96F000EFA6F000E016E000E026E3FEC6D
:10FA94007CF0000E016E000E026E44EC7CF0000E51
:10FAA400016E000E026E3AEC7CF0000E406E120005
:10FAB400076E0750056E066AD89005360636D8904C
:10FAC40005360636D8900536063605C00CF006C055
:10FAD4000DF0000E0DBEFF0E0E6E0F6E01C005F090
:10FAE400050E066ED8900532062E74EF7DF0055093
:10FAF4000C240C6E000E0D200D6E000E0E200E6EEA
:10FB0400000E0F200F6E0CC008F00DC009F00EC0DF
:10FB14000AF00FC00BF008C001F009C002F00AC0DF
:10FB240003F00BC004F01200800E8F6E8E50E00BB9
:10FB3400800AD8A4A0EF7DF0A2EF7DF098EF7DF0CD
:10FB4400000E916E000E3701006F000EBA6F000EAA
:10FB5400BB6F000EB86F000EB96F000EBE6F000EC3
:10FB6400BF6F000EBC6F000EBD6F000EA26F000EC3
:10FB7400A36F000EA06F000EA16F000EA66F000E03
:10FB8400A76F000EA46F000EA56F000EAA6F000EE3
:10FB9400AB6F000EA86F000EA96F000EAE6F000EC3
:10FBA400AF6F000EAC6F000EAD6F000EB26F000EA3
:10FBB400B36F000EB06F000EB16F000EB66F000E83
:10FBC400B76F000EB46F000EB56F1D0E036FA80E55
:10FBD400046F010E056F640E016EF80E026E35ECB3
:10FBE4007CF03901A59D958D000E8F6E6F0038FE57
:10FBF40003F0E00E0316D8A402EF7EF004EF7EF0CB
:10FC0400F8EF7DF01200096E000E106E000E116EFA
:10FC1400000E126E000E136E0350030B0E6E0338AB
:10FC2400E842070B0F6E0250056E066AD89005363F
:10FC34000636D89005360636D8900536063605C001
:10FC440010F006C011F0000E11BEFF0E126E136EFE
:10FC54000F501024106E000E1120116E000E122091
:10FC6400126E000E1320136E10C005F011C006F0C2
:10FC740012C007F013C008F0020ED89005360636FD
:10FC840007360836E82E3FEF7EF005C010F006C0B8
:10FC940011F007C012F008C013F00E501024106EBB
:10FCA400000E1120116E000E1220126E000E132091
:10FCB400136E10C006F011C007F012C008F0056AF8
:10FCC40005C010F006C011F007C012F008C013F010
:10FCD40009501024106E000E1120116E000E122017
:10FCE400126E000E1320136E10C006F011C007F040
:10FCF40012C008F0056A05C010F006C011F007C074
:10FD040012F008C013F001501024106E000E1120E0
:10FD1400116E000E1220126E000E1320136E10C00E
:10FD24000AF011C00BF012C00CF013C00DF00AC0A1
:10FD340001F00BC002F00CC003F00DC004F012007F
:10FD4400000E166E80AEA9EF7EF0ABEF7EF050EFA2
:10FD54007FF082A6B0EF7EF0B2EF7EF0DAEF7EF0B5
:10FD6400600053F0D9FF600057F0DAFF020EDF6E37
:10FD74006F0010FE01F06F0004FE02F06F0008FE39
:10FD840003F0835005EC7EF020EE01F01450D926E8
:10FD94001550DA22600007F0DEFF60000BF0DEFF92
:10FDA40060000FF0DEFF600013F0DEFFFAEF7EF07C
:10FDB400600053F0D9FF600057F0DAFF010EDF6EE8
:10FDC4006F0008FE01F081505AEC7DF020EE01F046
:10FDD4001450D9261550DA22600007F0DEFF6000C7
:10FDE4000BF0DEFF60000FF0DEFF600013F0DEFFBB
:10FDF40020EE05F01450D9261550DA226F0017FEB4
:10FE0400DFFF20EE06F01450D9261550DA226F00D9
:10FE14001BFEDFFF20EE07F01450D9261550DA221E
:10FE24006F001FFEDFFF20EE08F01450D926155096
:10FE3400DA226F0023FEDFFF20EE09F01450D926EA
:10FE44001550DA226F0027FEDFFF20EE0AF014506F
:10FE5400D9261550DA226F002BFEDFFF20EE0BF0BF
:10FE64001450D9261550DA226F002FFEDFFF20EE42
:10FE74000CF01450D9261550DA226F0033FEDFFF40
:10FE840020EE0DF01450D9261550DA226F0037FEFB
:10FE9400DFFF809E010E166EFCEF7FF03701F0AF9E
:10FEA40056EF7FF058EF7FF0FCEF7FF0F2A75DEFA5
:10FEB4007FF05FEF7FF087EF7FF0600053F0D9FFB2
:10FEC400600057F0DAFF020EDF6E6D00D0FF01F024
:10FED4006D00C4FF02F06D00C8FF03F0F35105ECA0
:10FEE4007EF020EE01F01450D9261550DA2260007D
:10FEF40007F0DEFF60000BF0DEFF60000FF0DEFFB6
:10FF0400600013F0DEFFA7EF7FF0600053F0D9FF2D
:10FF1400600057F0DAFF010EDF6E6D00C8FF01F0DC
:10FF2400F1515AEC7DF020EE01F01450D926155011
:10FF3400DA22600007F0DEFF60000BF0DEFF6000F5
:10FF44000FF0DEFF600013F0DEFF20EE05F014502A
:10FF5400D9261550DA226D00D7FFDFFF20EE06F018
:10FF64001450D9261550DA226D00DBFFDFFF20EE96
:10FF740007F01450D9261550DA226D00DFFFDFFF99
:10FF840020EE08F01450D9261550DA226D00E3FF54
:10FF9400DFFF20EE09F01450D9261550DA226D0047
:10FFA400E7FFDFFF20EE0AF01450D9261550DA22BD
:10FFB4006D00EBFFDFFF20EE0BF01450D926155037
:10FFC400DA226D00EFFFDFFF20EE0CF01450D9268B
:10FFD4001550DA226D00F3FFDFFF20EE0DF0145010
:10FFE400D9261550DA226D00F7FFDFFF3701F09FA5
:0CFFF4004CEF7FF0165012006FEF7CF015
:020000040020DA
:10000000FF0FFF0FFF0FFF0FFF0FFF0FFF0FFF0F80
:020000040030CA
:0A000000ECFFF7FF9FFFFFFFFFFF7B
:00000001FF
